:100000000EC015C014C013C012C011C010C00FC064
:100010000EC00DC00CC00BC00AC009C008C011241E
:100020001FBECFE5D2E0DEBFCDBF44D04AC0E8CF8F
:10003000009719F00197D1F0089588B3836088BBC9
:100040002FE93AE542E3215030404040E1F700C05B
:10005000000088B38C7F88BB8FE99AE522E381504A
:1000600090402040E1F700C0000008958AE090E051
:1000700028B3236028BB3FE049E025E031504040F1
:100080002040E1F700C0000028B32C7F28BB3FE0F0
:1000900049E025E0315040402040E1F700C0000039
:1000A000019731F73FE94AE582E331504040804013
:1000B000E1F7D9CF87B3836087BB80E090E0B8DFFA
:0600C000FCCFF894FFCF15
:00000001FF
